:03000000020919D9
:0C091900787FE4F6D8FD75810E0208001E
:100857004D4F495354555245203A204C4F57004D60
:100867004F544F52205354415445203A204F4E0085
:100877004D4F495354555245203A204F4B20004D78
:100887004F544F52205354415445203A4F46460047
:10080000A291E433750800F5097F3812092F7F0C97
:1008100012092FE509640145087F80701D12092F18
:100820007BFF7A0879571208977FC012092F7BFF48
:100830007A087966120897C2902212092F7BFF7AF4
:100840000879771208977FC012092F7BFF7A087901
:0608500086120897D29009
:01085600227F
:060897008B0A8A0B890C9C
:10089D00E4F50DF50EF50DF50EAB0AAA0BA90C85B9
:1008AD000E82850D831208C6FF600D120925050EF7
:0808BD00E50E70E5050D80E178
:0108C5002210
:0A0925008FA0D2B01208F3C2B12275
:0A092F008FA0C2B01208F3C2B1227B
:0608F300D2B17F0A7E0075
:1008F900E4FDFCC3ED9FEC9E5015E4FAFB0BBB0035
:0F090900010ABA03F8BBE8F50DBD00010C80E44C
:0109180022BC
:1008C600BB010CE58229F582E5833AF583E02250E7
:1008D60006E92582F8E622BBFE06E92582F8E22231
:0D08E600E58229F582E5833AF583E493224B
:00000001FF
